:030ED900013000E5
:100D7500120EB3120E5F7B007A00790C120C7B12F7
:100D85000CE08F307B007A00790CAF2C12066D7B5E
:100D9500007A00790C85128285118312037A80DF2F
:10039700533220697320646F776E0D0A0053332040
:1003A700697320646F776E0D0A00533420697320D8
:1003B700646F776E0D0A00533520697320646F7779
:1003C7006E0D0A00533620697320646F776E0D0A2D
:1003D70000533720697320646F776E0D0A00533816
:1003E70020697320646F776E0D0A00533920697393
:1003F70020646F776E0D0A005331302069732064D3
:100407006F776E0D0A0053313120697320646F775F
:100417006E0D0A0053313220697320646F776E0DB9
:100427000A0053313320697320646F776E0D0A0019
:1004370053313420697320646F776E0D0A0053318E
:100447003520697320646F776E0D0A0053313620AB
:10045700697320646F776E0D0A005331206973202A
:100467004C6F6E6750726573730D0A0053322069C3
:1004770073204C6F6E6750726573730D0A005333A8
:10048700206973204C6F6E6750726573730D0A0095
:100497005334206973204C6F6E6750726573730D08
:1004A7000A005335206973204C6F6E67507265736D
:1004B700730D0A005336206973204C6F6E675072B4
:1004C7006573730D0A005337206973204C6F6E678D
:1004D70050726573730D0A005338206973204C6F8F
:1004E7006E6750726573730D0A0053392069732064
:1004F7004C6F6E6750726573730D0A00533130206D
:100507006973204C6F6E6750726573730D0A0053E1
:100517003131206973204C6F6E6750726573730DAC
:100527000A00533132206973204C6F6E6750726531
:1005370073730D0A00533133206973204C6F6E6754
:1005470050726573730D0A00533134206973204C60
:100557006F6E6750726573730D0A005331352069EA
:1005670073204C6F6E6750726573730D0A005331B9
:1005770036206973204C6F6E6750726573730D0A6E
:10058700005332206973204C6966740D0A00533397
:10059700206973204C6966740D0A0053342069730F
:1005A700204C6966740D0A005335206973204C6925
:1005B70066740D0A005336206973204C6966740D02
:1005C7000A005337206973204C6966740D0A00537B
:1005D70038206973204C6966740D0A005339206905
:1005E70073204C6966740D0A0053313020697320FB
:1005F7004C6966740D0A00533131206973204C69C8
:1006070066740D0A00533132206973204C69667491
:100617000D0A00533133206973204C6966740D0A43
:1006270000533134206973204C6966740D0A0053F6
:100637003135206973204C6966740D0A00533136D1
:10064700206973204C6966740D0A00533120416E8E
:100657006420533220436F6D706F756E6420507243
:060667006573730D0A002B
:060EDC0004087FBFDFEFF8
:100C7B008B1B8A1C891D900002E4120262900003F8
:100C8B00E41202627BFF7A0A79C3C003C002C0017F
:100C9B00AB1BAA1CA91D9000041202F7AB1BAA1CCC
:100CAB00A91D900007E4F5F01202BCE4120250AB50
:100CBB001BAA1CA91D90000112026290000974046A
:100CCB0012026290000AE4F5F01202BC90000DE4EF
:050CDB00F5F00202BC6F
:090EF100EF60037F01227F002263
:100EA000120EF1EF600AE50C70037F01227F002231
:030EB0007F00229E
:100E7600120EF1EF60037F0022E514451360037F35
:050E860001227F0022A3
:10066D00AE07EE70030207C7120EA0EF60349000C4
:10067D00027401120219F582758300EE1202629066
:10068D000007E4F5F01202BC90000374011202623F
:10069D00900009E412026290000AE5278528F00215
:1006AD00081AAF06120EF1EF60501201D3FF6E70F3
:1006BD00499000021201EC6401703F90000A120291
:1006CD0084FDC3E5289DFDE52795F0FCD3ED94E869
:1006DD00EC94034011900007E48FF01202BC9000DF
:1006ED0009740202079B1201D3FF900007E48FF0FB
:1006FD001202BC900003E40207F8AF06120EF1EFF0
:10070D00603B1201D3FF6E60349000021201EC6465
:10071D0001702AEFFD900007E48DF01202BC9000ED
:10072D0001EE120262900003740112026290000940
:10073D00740312026290000274020207F8AF0612EF
:10074D000EF1EF700302081D9000021201EC64021D
:10075D00600302081D1201D3FF6E600C90000112A0
:10076D0001EC6E600302081DD3E52A940AE5299475
:10077D0000500302081DEEB5071E900001E41202A1
:10078D00629000027401120262900009740112025B
:10079D0062900003740180539000011201EC6E70A1
:1007AD006F1202509000020412026290000974014F
:1007BD0012026290000374018031AF06120E76EFC3
:1007CD00602CAF06900007E48FF01202BC90000978
:1007DD00740112026290000274FF120219F5827503
:1007ED008300E41202629000037401020262900021
:1007FD0003E4120262E412025090000112026290B0
:10080D0000097404120262900007E4F5F01202BCB4
:01081D0022B8
:100AC3008B1E8A1F89209000031201EC7003020B16
:100AD300609000091201EC70030209E9AB1EAA1F22
:100AE300A9209000091201EC6402704D90000D12D0
:100AF3000284FFC3E5289FFFE52795F0FED3EF941B
:100B0300E8EE9403400890000C7401120262900016
:100B13000C1201EC64017045AB1EAA1FA920120937
:100B23000CAB1EAA1FA92090000CE41202629000D5
:100B33000DE5278528F00202BCAB1EAA1FA9209051
:100B430000091201ECB4010302081EAB1EAA1FA97F
:0E0B5300209000091201ECB40303120D2F22B2
:1009E9008B218A2289239000091201EC6003020AF3
:1009F900C21201D31203500A34770A3B7B0A437DA2
:100A09000A4B7E0A53B70A5BBB0A63BD0A6BBE0A6F
:100A190073D70A7BDB0A83DD0A8BDE0A93E70A9B1D
:100A2900EB0AA3ED0AABEE00000AB4AF30120003E3
:100A390080797BFF7A037997806E7BFF7A0379A4AB
:100A490080667BFF7A0379B1805E7BFF7A0379BE8A
:100A590080567BFF7A0379CB804E7BFF7A0379D866
:100A690080467BFF7A0379E5803E7BFF7A0379F242
:100A790080367BFF7A0379FF802E7BFF7A04790D1C
:100A890080267BFF7A04791B801E7BFF7A047929F3
:100A990080167BFF7A047937800E7BFF7A047945CB
:100AA90080067BFF7A047953120DA5AB21AA22A9EE
:0A0AB9002390000974041202622267
:10090C008B218A2289239000091201EC6402600376
:10091C000209E81201D312035009597709617B09C6
:10092C00697D09717E0979B70981BB0989BD099176
:10093C00BE0999D709A1DB09A9DD09B1DE09B9E71F
:10094C0009C1EB09C9ED09D1EE000009DA7BFF7A88
:10095C0004796180767BFF7A047973806E7BFF7AF1
:10096C0004798580667BFF7A047997805E7BFF7AB9
:10097C000479A980567BFF7A0479BB804E7BFF7A81
:10098C000479CD80467BFF7A0479DF803E7BFF7A49
:10099C000479F180367BFF7A057903802E7BFF7A10
:1009AC0005791680267BFF7A057929801E7BFF7AD4
:1009BC0005793C80167BFF7A05794F800E7BFF7A98
:1009CC0005796280067BFF7A057975120DA5AB213E
:0D09DC00AA22A923900009740412026222CD
:06081E008B218A228923D0
:10082400E4FF9000091201EC6401600302090B90DB
:1008340000011201ECFE70091201D3FD6003FF8078
:100844000AEE60079000011201ECFFEF120350085A
:10085400847B088C7D08947E089CB708A4BB08ACF4
:10086400BD08B4BE08BCD708C4DB08CCDD08D4DEA0
:1008740008DCE708E4EB08ECED08F4EE000008FD02
:100884007BFF7A057988806E7BFF7A05799580668F
:100894007BFF7A0579A2805E7BFF7A0579AF80566B
:1008A4007BFF7A0579BC804E7BFF7A0579C9804647
:1008B4007BFF7A0579D6803E7BFF7A0579E3803623
:1008C4007BFF7A0579F0802E7BFF7A0579FE8026FE
:1008D4007BFF7A06790C801E7BFF7A06791A8016D4
:1008E4007BFF7A067928800E7BFF7A0679368006AC
:1008F4007BFF7A067944120DA5AB21AA22A9239085
:0709040000097404120262F5
:01090B0022C9
:100D2F008B218A2289239000091201EC640370350C
:100D3F001201D3FFB4770A9000011201EC64BB607B
:100D4F000D9000011201ECB4770DEFB4BB097BFFDE
:100D5F007A067952120DA5AB21AA22A92390000978
:060D6F007404120262226E
:100E2A00E4FFFE74082FF8E6F5905590FDE66D6034
:0B0E3A0004AE9080040FBF04EAAF0676
:010E4500228A
:100DCA00E4FE7F03D3EF6480947F401574082FF804
:100DDA00E6F5905590FDE66D6004AE9080031F80A5
:030DEA00E3AF066E
:010DED0022E3
:100DEE00D3EF9400EE940040147DE87C03ED1D706B
:0D0DFE00011CED4C70F7EF1F70E61E80E346
:010E0B0022C4
:100E5F0053877F75984053890F438920758BFD7594
:070E6F008DFDD28EC2AB2203
:080003008F993099FDC299228A
:100DA5008B248A258926AB24AA25A9261201D3607E
:100DB500130526E5267002052514F91201D3FF1245
:050DC500000380E222A2
:030EE200012F00DD
:100EB300438901758CFC758A18D2A9758D01D28C72
:030EC300D2AF2289
:100EC600E5A0C4131313540130E00453A07F22435A
:030ED600A08022D7
:03000B00020B6184
:100B6100C0E0C0F0C083C082C0D075D000C000C05A
:100B710001C002C003C004C005C006C007758CFCDB
:100B8100758A18E52F7007120E2A8F2C8005120D19
:100B9100CA8F2CE52C6003632FFFE52BB52C0A05CA
:100BA1002AE52A700A05298006752900752A00059B
:100BB1002EE52E7002052D0528E52870020527C3B4
:100BC100E52E94E8E52D94034009120EC6752D001B
:100BD100752E00D007D006D005D004D003D002D0A6
:0E0BE10001D000D0D0D082D083D0F0D0E0324E
:0A0EE600E4FEEEC39F50030E80F8F7
:010EF00022DF
:100E8B00D2B77F08120EE6C2B77F55120EE6D2B765
:050E9B007F0E020EE6CF
:020E0C00AD0730
:100E0E00E4FBC2B7ED1392B77F05120EE6D2B7ED33
:0C0E1E00C313FD0BBB08EB7F04020EE6C3
:100E4600E4FDFCD2B7D2B730B7084305807F041261
:080E56000EE60CBC08EDAF052F
:010E5E002271
:100CE000E4FFFB120E8B7FCC120E0C7F44120E0C15
:100CF0007F7D120EE6120E8B7FCC120E0C7FBE1281
:100D00000E0C120E46AB07120E46EFFE7C00E42BD3
:100D1000FDEC3EFCE4120119E4FBFA7920783F1265
:0E0D2000000E120152AD077FC8120EE6AF059D
:010D2E0022A2
:10000E00EC4D6011E8497017ED33EC3304600DE4EC
:10001E00FCFFFEFD22E933E8330470F80201BE1244
:10002E00018958046009E4CC248150062850090245
:10003E0001C82840030201C5C0E0EB4A7044B980F4
:10004E0006D0E0FB0201B4EF4E701CBD8008EBFF42
:10005E00EAFEE9FD80EBE98DF0A4FEE5F00200F783
:10006E00E9CDF9EAFEEBFFEF89F0A4FCE5F0CE89CD
:10007E00F0A42EFFE435F0CD89F0A42DFEE435F08A
:10008E008067EF4E7005BD80D780C3EF8BF0A4ACB8
:10009E00F0EE8BF0A42CFCE435F0F8EF8AF0A42CF3
:1000AE00E5F038FCE433CB8DF0A42CFCE5F03BF806
:1000BE00EE8AF0A42CFCE5F038F8E433CF89F0A4F6
:1000CE002CFCE5F038CF3400CE89F0A42FFFE5F0FC
:1000DE003EFEE433C98DF0A42EFEE5F039CD8AF054
:1000EE00A42FFFE5F03EFEE43DFD33D0E0FB5007CC
:1000FE000BBB000F0201C8EC2CFCEF33FFEE33FEFE
:06010E00ED33FD0201A02B
:1001140075F020800E75F010800575F0087D007E66
:10012400007F003392D530D5031202E9EC3340103E
:10013400EF33FFEE33FEED33FDEC33FCD5F0ED226F
:0E014400E5F0247EA2D513CC92E7CDCEFF22AB
:10015200EDD2E7CD33EC3392D524814006E4FFFEA5
:10016200FDFC22FCE4CFCECDCC24E0501174FF8004
:10017200EDC3CC13CCCD13CDCE13CECF13CF0470A1
:07018200F030D5DE0202E9B6
:10018900E9D2E7C933E833F892D5EDD2E7CD33ECBC
:0701990033FC5002B2D52235
:1001A000EC30E7100FBF000C0EBE00080DBD0004C0
:1001B0000BEB6014A2D5EB13FCED92E7FD2274FF6C
:1001C000FCFDFEFF22E480F8A2D574FF13FC7D80C5
:0301D000E480EFD9
:03000000020BEF01
:0C0BEF00787FE4F6D8FD758130020C36EA
:1001D300BB010689828A83E0225002E722BBFE022A
:0901E300E32289828A83E493225D
:1001EC00BB010CE58229F582E5833AF583E02250C8
:1001FC0006E92582F8E622BBFE06E92582F8E22212
:0D020C00E58229F582E5833AF583E493222B
:10021900BB0111F8E58229F582E5833AF583E0C847
:1002290028F0E8225009C58229F8C58226C622BBD2
:10023900FE0DC58229F8E2C5822582F2E58222EA0D
:070249002583F583E99322F0
:10025000BB010689828A83F0225002F722BBFE018D
:02026000F32287
:10026200F8BB010DE58229F582E5833AF583E8F0D2
:10027200225006E92582C8F622BBFE05E92582C87E
:02028200F22266
:10028400BB0110E58229F582E5833AF583E0F5F0B8
:10029400A3E0225009E92582F886F008E622BBFE95
:1002A4000AE92582F8E2F5F008E222E5832AF583DB
:0802B400E993F5F0A3E99322A0
:1002BC00F8BB0111E58229F582E5833AF583E8F074
:1002CC00E5F0A3F0225009E92582C8F608A6F02231
:0D02DC00BBFE09E92582C8F2E5F008F22218
:0E02E900C3E49FFFE49EFEE49DFDE49CFC2226
:1002F700BB0120E58229F582E5833AF583D0F0D06A
:10030700E0F8D0E0F9D0E0FAD0E0FBE8C0E0C0F0D8
:100317000203855018E92582F8D083D082D0E0F90E
:10032700D0E0FAD0E0FBC082C08302037CBBFE189A
:10033700E92582F8D083D082D0E0F9D0E0FAD0E086
:09034700FBC082C08302038E2278
:10035000D083D082F8E4937012740193700DA3A33C
:1003600093F8740193F5828883E473740293686050
:06037000EFA3A3A380DF50
:060376008A838982E47312
:100BFB00020D75E493A3F8E493A34003F68001F28E
:100C0B0008DFF48029E493A3F85407240CC8C333FA
:100C1B00C4540F4420C8834004F456800146F6DFC9
:100C2B00E4800B0102040810204080900ED9E47E72
:100C3B00019360BCA3FF543F30E509541FFEE493BE
:100C4B00A360010ECF54C025E060A840B8E493A385
:100C5B00FAE493A3F8E493A3C8C582C8CAC583CAB0
:100C6B00F0A3C8C582C8CAC583CADFE9DEE780BE68
:010EE500000C
:09037C00EBF608EAF608E9F622A6
:09038500EBF0A3EAF0A3E9F02279
:09038E00EBF208EAF208E9F222A0
:00000001FF
