:100B7900120C66120C277B007A00790C120ACE7BC4
:100B8900007A00790CAF2C1204B47B007A00790C3E
:0B0B990085128285118312049780E40E
:10000E00533120697320646F776E0D0A00533220CE
:10001E00697320646F776E0D0A0053332069732065
:10002E00646F776E0D0A00533420697320646F7706
:10003E006E0D0A00533520697320646F776E0D0ABA
:10004E0000533620697320646F776E0D0A005337A4
:10005E0020697320646F776E0D0A00533820697320
:10006E0020646F776E0D0A00533920697320646F18
:10007E00776E0D0A0053313020697320646F776EEE
:10008E000D0A0053313120697320646F776E0D0AAB
:10009E000053313220697320646F776E0D0A00535E
:1000AE00313320697320646F776E0D0A005331343B
:1000BE0020697320646F776E0D0A00533135206905
:1000CE007320646F776E0D0A0053313620697320EA
:1000DE00646F776E0D0A005331206973204C6F6E7A
:1000EE006750726573730D0A005332206973204C8A
:1000FE006F6E6750726573730D0A00533320697308
:10010E00204C6F6E6750726573730D0A0053342066
:10011E006973204C6F6E6750726573730D0A0053CE
:10012E0035206973204C6F6E6750726573730D0ABC
:10013E00005336206973204C6F6E6750726573736F
:10014E000D0A005337206973204C6F6E675072652D
:10015E0073730D0A005338206973204C6F6E67500D
:10016E00726573730D0A005339206973204C6F6EDC
:10017E006750726573730D0A005331302069732016
:10018E004C6F6E6750726573730D0A0053313120D8
:10019E006973204C6F6E6750726573730D0A00534E
:1001AE003132206973204C6F6E6750726573730D18
:1001BE000A00533133206973204C6F6E675072659D
:1001CE0073730D0A00533134206973204C6F6E67C0
:1001DE0050726573730D0A00533135206973204CCC
:1001EE006F6E6750726573730D0A00533136206956
:1001FE0073204C6F6E6750726573730D0A00533126
:10020E00206973204C6966740D0A0053322069739D
:10021E00204C6966740D0A005333206973204C69B3
:10022E0066740D0A005334206973204C6966740D90
:10023E000A005335206973204C6966740D0A005309
:10024E0036206973204C6966740D0A005337206995
:10025E0073204C6966740D0A005338206973204C64
:10026E006966740D0A005339206973204C696674EF
:10027E000D0A00533130206973204C6966740D0AE3
:10028E0000533131206973204C6966740D0A005396
:10029E003132206973204C6966740D0A0053313374
:1002AE00206973204C6966740D0A0053313420693D
:1002BE0073204C6966740D0A005331352069732022
:1002CE004C6966740D0A00533136206973204C69EF
:1002DE0066740D0A00533120416E64205332204360
:1002EE006F6D706F756E642050726573730D0A00BA
:060C8C0004087FBFDFEF4A
:100ACE008B1B8A1C891D900002E412038D9000037B
:100ADE00E412038D7BFF7A097916C003C002C001B0
:100AEE00AB1BAA1CA91D900004120414AB1BAA1C5C
:100AFE00A91D900007E4F5F01203E7E412037BABA7
:100B0E001BAA1CA91D90000112038D9000097404EC
:100B1E0012038D90000AE4F5F01203E790000DE445
:050B2E00F5F00203E7F1
:090C9600EF60037F01227F0022C0
:100C5300120C96EF600AE50C70037F01227F0022DD
:030C63007F0022ED
:100C3E00120C96EF60037F0022E514451360037FCC
:050C4E0001227F0022DD
:1004B400AE07EE700302060E120C53EF6034900088
:1004C400027401120344F582758300EE12038D90C9
:1004D4000007E4F5F01203E7900003740112038DA2
:1004E400900009E412038D90000AE5278528F002A4
:1004F4000661AF06120C96EF60501202FEFF6E709A
:10050400499000021203176401703F90000A12031D
:10051400AFFDC3E5289DFDE52795F0FCD3ED94E8F8
:10052400EC94034011900007E48FF01203E790006D
:100534000974020205E21202FEFF900007E48FF044
:100544001203E7900003E402063FAF06120C96EF95
:10055400603B1202FEFF6E603490000212031764C7
:1005640001702AEFFD900007E48DF01203E790007C
:1005740001EE12038D900003740112038D900009A3
:10058400740312038D900002740202063FAF061238
:100594000C96EF70030206649000021203176402C3
:1005A40060030206641202FEFF6E600C90000112EA
:1005B40003176E6003020664D3E52A940AE52994BE
:1005C400005003020664EEB5071E900001E4120316
:1005D4008D900002740112038D90000974011203BE
:1005E4008D900003740180539000011203176E7004
:1005F4006F12037B9000020412038D9000097401B2
:1006040012038D90000374018031AF06120C3EEF8B
:10061400602CAF06900007E48FF01203E790000906
:10062400740112038D90000274FF120344F5827565
:100634008300E412038D900003740102038D900083
:1006440003E412038DE412037B90000112038D90E6
:100654000009740412038D900007E4F5F01203E717
:010664002273
:100916008B1E8A1F89209000031203177003020999
:10092600B3900009120317700302083BAB1EAA1FFF
:10093600A9209000091203176402704D90000D1251
:1009460003AFFFC3E5289FFFE52795F0FED3EF949D
:10095600E8EE9403400890000C740112038D900099
:100966000C12031764017045AB1EAA1FA9201207BB
:100976005EAB1EAA1FA92090000CE412038D900006
:100986000DE5278528F00203E7AB1EAA1FA92090D4
:100996000009120317B40103020665AB1EAA1FA9BC
:0E09A60020900009120317B40303120B332232
:10083B008B218A2289239000091203176003020976
:10084B00151202FE12046D088677088E7B08967DC2
:10085B00089E7E08A6B708AEBB08B6BD08BEBE088C
:10086B00C6D708CEDB08D6DD08DEDE08E6E708EEE5
:10087B00EB08F6ED08FEEE000009077BFF7A007926
:10088B000E80767BFF7A00791B806E7BFF7A007976
:10089B002880667BFF7A007935805E7BFF7A007952
:1008AB004280567BFF7A00794F804E7BFF7A00792E
:1008BB005C80467BFF7A007969803E7BFF7A00790A
:1008CB007680367BFF7A007983802E7BFF7A0079E6
:1008DB009180267BFF7A00799F801E7BFF7A0079BF
:1008EB00AD80167BFF7A0079BB800E7BFF7A007997
:1008FB00C980067BFF7A0079D7120BA4AB21AA2201
:0B090B00A923900009740412038D2240
:10075E008B218A22892390000912031764026003F9
:10076E0002083A1202FE12046D07AB7707B37B073D
:10077E00BB7D07C37E07CBB707D3BB07DBBD07E344
:10078E00BE07EBD707F3DB07FBDD0803DE080BE73D
:10079E000813EB081BED0823EE0000082C7BFF7AF4
:1007AE000079E580767BFF7A0079F7806E7BFF7AA1
:1007BE0001790980667BFF7A01791B805E7BFF7A67
:1007CE0001792D80567BFF7A01793F804E7BFF7A2F
:1007DE0001795180467BFF7A017963803E7BFF7AF7
:1007EE0001797580367BFF7A017987802E7BFF7ABF
:1007FE0001799A80267BFF7A0179AD801E7BFF7A84
:10080E000179C080167BFF7A0179D3800E7BFF7A47
:10081E000179E680067BFF7A0179F9120BA4AB21F0
:0D082E00AA22A923900009740412038D2250
:060665008B218A2289238B
:10066B00E4FF9000091203176401600302075D9019
:10067B000001120317FE70091202FEFD6003FF80DA
:10068B000AEE6007900001120317FFEF12046D06CC
:10069B00CE7706D67B06DE7D06E67E06EEB706F641
:1006AB00BB06FEBD0706BE070ED70716DB071EDD12
:1006BB000726DE072EE70736EB073EED0746EE0073
:1006CB0000074F7BFF7A02790C80767BFF7A0279E9
:1006DB0019806E7BFF7A02792680667BFF7A02791E
:1006EB0033805E7BFF7A02794080567BFF7A0279FA
:1006FB004D804E7BFF7A02795A80467BFF7A0279D6
:10070B0067803E7BFF7A02797480367BFF7A0279B1
:10071B0081802E7BFF7A02798F80267BFF7A02798C
:10072B009D801E7BFF7A0279AB80167BFF7A027964
:10073B00B9800E7BFF7A0279C780067BFF7A02793C
:10074B00D5120BA4AB21AA22A92390000974041281
:02075B00038D0C
:01075D002279
:100B33008B218A22892390000912031764037035DD
:100B43001202FEFFB4770A90000112031764BB6020
:100B53000D900001120317B4770DEFB4BB097BFFAF
:100B63007A0279E3120BA4AB21AA22A923900009EC
:060B7300740412038D2240
:100C0B00E4FFFE74082FF8E6F5905590FDE66D6055
:0B0C1B0004AE9080040FBF04EAAF0697
:010C260022AB
:100BC900E4FE7F03D3EF6480947F401574082FF807
:100BD900E6F5905590FDE66D6004AE9080031F80A8
:030BE900E3AF0671
:010BEC0022E6
:100BED00D3EF9400EE940040147DE87C03ED1D706E
:0D0BFD00011CED4C70F7EF1F70E61E80E349
:010C0A0022C7
:100C270053877F75984053890F438920758BFD75CE
:070C37008DFDD28EC2AB223D
:080003008F993099FDC299228A
:100BA4008B248A258926AB24AA25A9261202FE6055
:100BB400130526E5267002052514F91202FEFF121C
:050BC400000380E222A5
:030C9200012F002F
:100C6600438901758CFC758A18D2A9758D01D28CC1
:030C7600D2AF22D8
:100C7900E5A0C4131313540130E00453A07F2243A9
:030C8900A0802226
:03000B000209B433
:1009B400C0E0C0F0C083C082C0D075D000C000C009
:1009C40001C002C003C004C005C006C007758CFC8A
:1009D400758A18E52F7007120C0B8F2C8005120BEB
:1009E400C98F2CE52C6003632FFFE52BB52C0A057A
:1009F4002AE52A700A05298006752900752A00054A
:100A04002EE52E7002052D0528E52870020527C362
:100A1400E52E94E8E52D94034009120C79752D0018
:100A2400752E00D007D006D005D004D003D002D054
:0E0A340001D000D0D0D082D083D0F0D0E032FC
:03000000020A42AF
:0C0A4200787FE4F6D8FD75812F020A8948
:1002FE00BB010689828A83E0225002E722BBFE02FE
:09030E00E32289828A83E4932230
:10031700BB010CE58229F582E5833AF583E022509B
:1003270006E92582F8E622BBFE06E92582F8E222E5
:0D033700E58229F582E5833AF583E49322FF
:10034400BB0111F8E58229F582E5833AF583E0C81B
:1003540028F0E8225009C58229F8C58226C622BBA6
:10036400FE0DC58229F8E2C5822582F2E58222EAE1
:070374002583F583E99322C4
:10037B00BB010689828A83F0225002F722BBFE0161
:02038B00F3225B
:10038D00F8BB010DE58229F582E5833AF583E8F0A6
:10039D00225006E92582C8F622BBFE05E92582C852
:0203AD00F2223A
:1003AF00BB0110E58229F582E5833AF583E0F5F08C
:1003BF00A3E0225009E92582F886F008E622BBFE69
:1003CF000AE92582F8E2F5F008E222E5832AF583AF
:0803DF00E993F5F0A3E9932274
:1003E700F8BB0111E58229F582E5833AF583E8F048
:1003F700E5F0A3F0225009E92582C8F608A6F02205
:0D040700BBFE09E92582C8F2E5F008F222EB
:10041400BB0120E58229F582E5833AF583D0F0D04B
:10042400E0F8D0E0F9D0E0FAD0E0FBE8C0E0C0F0BA
:100434000204A25018E92582F8D083D082D0E0F9D2
:10044400D0E0FAD0E0FBC082C083020499BBFE185E
:10045400E92582F8D083D082D0E0F9D0E0FAD0E068
:09046400FBC082C0830204AB223C
:10046D00D083D082F8E4937012740193700DA3A31E
:10047D0093F8740193F5828883E473740293686032
:06048D00EFA3A3A380DF32
:060493008A838982E473F4
:100A4E00020B79E493A3F8E493A34003F68001F23A
:100A5E0008DFF48029E493A3F85407240CC8C333A9
:100A6E00C4540F4420C8834004F456800146F6DF78
:100A7E00E4800B0102040810204080900C8CE47E70
:100A8E00019360BCA3FF543F30E509541FFEE4936D
:100A9E00A360010ECF54C025E060A840B8E493A334
:100AAE00FAE493A3F8E493A3C8C582C8CAC583CA5F
:100ABE00F0A3C8C582C8CAC583CADFE9DEE780BE17
:010C9500005E
:09049900EBF608EAF608E9F62288
:0904A200EBF0A3EAF0A3E9F0225B
:0904AB00EBF208EAF208E9F22282
:00000001FF
