:04195B0041009800AF
:0A000E00E4FEEEC39F50030E80F8DD
:0100180022C5
:101921001219351218B57B017A00797E12156D12E4
:0419310015F280FB30
:100BC700533220697320646F776E0D0A0053332008
:100BD700697320646F776E0D0A00533420697320A0
:100BE700646F776E0D0A00533520697320646F7741
:100BF7006E0D0A00533620697320646F776E0D0AF5
:100C070000533720697320646F776E0D0A005338DD
:100C170020697320646F776E0D0A0053392069735A
:100C270020646F776E0D0A0053313020697320649A
:100C37006F776E0D0A0053313120697320646F7727
:100C47006E0D0A0053313220697320646F776E0D81
:100C57000A0053313320697320646F776E0D0A00E1
:100C670053313420697320646F776E0D0A00533156
:100C77003520697320646F776E0D0A005331362073
:100C8700697320646F776E0D0A00533120697320F2
:100C97004C6F6E6750726573730D0A00533220698B
:100CA70073204C6F6E6750726573730D0A00533370
:100CB700206973204C6F6E6750726573730D0A005D
:100CC7005334206973204C6F6E6750726573730DD0
:100CD7000A005335206973204C6F6E675072657335
:100CE700730D0A005336206973204C6F6E6750727C
:100CF7006573730D0A005337206973204C6F6E6755
:100D070050726573730D0A005338206973204C6F56
:100D17006E6750726573730D0A005339206973202B
:100D27004C6F6E6750726573730D0A005331302034
:100D37006973204C6F6E6750726573730D0A0053A9
:100D47003131206973204C6F6E6750726573730D74
:100D57000A00533132206973204C6F6E67507265F9
:100D670073730D0A00533133206973204C6F6E671C
:100D770050726573730D0A00533134206973204C28
:100D87006F6E6750726573730D0A005331352069B2
:100D970073204C6F6E6750726573730D0A00533181
:100DA70036206973204C6F6E6750726573730D0A36
:100DB700005332206973204C6966740D0A0053335F
:100DC700206973204C6966740D0A005334206973D7
:100DD700204C6966740D0A005335206973204C69ED
:100DE70066740D0A005336206973204C6966740DCA
:100DF7000A005337206973204C6966740D0A005343
:100E070038206973204C6966740D0A0053392069CC
:100E170073204C6966740D0A0053313020697320C2
:100E27004C6966740D0A00533131206973204C698F
:100E370066740D0A00533132206973204C69667459
:100E47000D0A00533133206973204C6966740D0A0B
:100E570000533134206973204C6966740D0A0053BE
:100E67003135206973204C6966740D0A0053313699
:100E7700206973204C6966740D0A00533120416E56
:100E87006420533220436F6D706F756E642050720B
:060E97006573730D0A00F3
:07195F0044007A7FBFDFEFB7
:10156D00900040EBF0A3EAF0A3E9F0900040E0FB1F
:10157D00A3E0FAA3E0F9900002E41205BC90000389
:10158D00E41205BC7BFF7A137963C003C002C0016E
:10159D00900040E0FBA3E0FAA3E0F99000041206EE
:1015AD0087900040E0FBA3E0FAA3E0F9900007E488
:1015BD00F5F012062CE41205AA900040E0FBA3E022
:1015CD00FAA3E0F9900001E41205BC90000974043F
:1015DD001205BC90000AE4F5F012062C90000DE403
:0515ED00F5F002062CE0
:05196B00900099E0FF6F
:09197000EF60037F01227F0022D9
:1018E200121970EF600C90007EE070037F01227F7E
:0518F20000227F00222E
:10189C00121970EF60037F0022900085E07002A3A4
:0918AC00E060037F01227F0022AD
:100E9D00900099EFF0700302101FE0FF1218E2EFBF
:100EAD00603E900099E0FF9000027401120573F509
:100EBD0082758300EF1205BC900007E4F5F0120671
:100ECD002C90000374011205BC900009E41205BCBE
:100EDD0090008DE0FFA3E090000ACF8FF002107814
:100EED0012196BEF605C12052DFF900099E06F7089
:100EFD00519000021205466401704790000A1205D8
:100F0D00F4FFC390008EE09FFF90008DE095F0FE02
:100F1D00D3EF94E8EE9403401512052DFF900007D2
:100F2D00E48FF012062C9000097402020FF31205E3
:100F3D002DFF900007E48FF012062C900003E402C1
:100F4D00105612196BEF604012052DFF900099E0BD
:100F5D00FE6F60349000021205466401702AEFFDA9
:100F6D00900007E48DF012062C900001EE1205BCE6
:100F7D0090000374011205BC90000974031205BCA6
:100F8D00900002740202105612196BEF70030210DA
:100F9D007B9000021205466402600302107B12056D
:100FAD002DFF900099E0FE6F600E90000112054636
:100FBD00FDEE6D600302107BD3900090E0940A90DB
:100FCD00008FE09400500302107B900099E0FEB575
:100FDD00071E900001E41205BC9000027401120579
:100FED00BC90000974011205BC9000037401805976
:100FFD009000011205466E70751205AA900002044C
:10100D001205BC90000974011205BC900003740117
:10101D008037900099E0FF12189CEF602F90009997
:10102D00E0FF900007E48FF012062C900009740188
:10103D001205BC90000274FF120573F582758300D2
:10104D00E41205BC90000374010205BC900003E49A
:10105D001205BCE41205AA9000011205BC9000090E
:0F106D0074041205BC900007E4F5F012062C2263
:10136300900043EBF0A3EAF0A3E9F0900043E0FB25
:10137300A3E0FAA3E0F990000312054670030214F8
:1013830032900009120546700302117F900043E07A
:10139300FBA3E0FAA3E0F99000091205466402708A
:1013A3006090000D1205F4FFC390008EE09FFF9044
:1013B300008DE095F0FED3EF94E8EE94034008909F
:1013C300000C74011205BC90000C120546640170F8
:1013D3005E900043E0FBA3E0FAA3E0F912127190E0
:1013E3000043E0FBA3E0FAA3E0F990000CE412054C
:1013F300BC90008DE0FFA3E090000DCF8FF00206BC
:101403002C900043E0FBA3E0FAA3E0F9900009125B
:101413000546B4010302107C900043E0FBA3E0FA0D
:10142300A3E0F9900009120546B4030312165D22E6
:10117F00900046EBF0A3EAF0A3E9F0900046E0FB05
:10118F00A3E0FAA3E0F990000912054660030212EA
:10119F007012052D1206E011DA7711E47B11EC7D48
:1011AF0011F47E11FCB71204BB120CBD1214BE1247
:1011BF001CD71224DB122CDD1234DE123CE7124452
:1011CF00EB124CED1254EE0000125D900098E0FF10
:1011DF001216B880797BFF7A0B79C7806E7BFF7A06
:1011EF000B79D480667BFF7A0B79E1805E7BFF7A87
:1011FF000B79EE80567BFF7A0B79FB804E7BFF7A63
:10120F000C790880467BFF7A0C7915803E7BFF7A3C
:10121F000C792280367BFF7A0C792F802E7BFF7A18
:10122F000C793D80267BFF7A0C794B801E7BFF7AF1
:10123F000C795980167BFF7A0C7967800E7BFF7AC9
:10124F000C797580067BFF7A0C79831217919000C9
:10125F0046E0FBA3E0FAA3E0F9900009740412053D
:02126F00BC229F
:10127100900046EBF0A3EAF0A3E9F0900046E0FB12
:10128100A3E0FAA3E0F990000912054664026003A5
:1012910002136212052D1206E012CE7712D67B12CE
:1012A100DE7D12E67E12EEB712F6BB12FEBD13060C
:1012B100BE130ED71316DB131EDD1326DE132EE726
:1012C1001336EB133EED1346EE0000134F7BFF7A0E
:1012D1000C799180767BFF7A0C79A3806E7BFF7A03
:1012E1000C79B580667BFF7A0C79C7805E7BFF7ACB
:1012F1000C79D980567BFF7A0C79EB804E7BFF7A93
:101301000C79FD80467BFF7A0D790F803E7BFF7A59
:101311000D792180367BFF7A0D7933802E7BFF7A20
:101321000D794680267BFF7A0D7959801E7BFF7AE5
:101331000D796C80167BFF7A0D797F800E7BFF7AA9
:101341000D799280067BFF7A0D79A5121791900095
:1013510046E0FBA3E0FAA3E0F9900009740412054A
:02136100BC22AC
:0B107C00900046EBF0A3EAF0A3E9F0BF
:10108700E4FF9000091205466401600302117E9097
:101097000046E0FBA3E0FAA3E0F990000112054641
:1010A700FE700912052DFD6003FF800AEE600790B0
:1010B7000001120546FFEF1206E010F27B10FA7DE1
:1010C70011027E110AB71112BB111ABD1122BE11EE
:1010D7002AD71132DB113ADD1142DE114AE71152EC
:1010E700EB115AED1162EE0000116B7BFF7A0D795F
:1010F700B8806E7BFF7A0D79C580667BFF7A0D79A4
:10110700D2805E7BFF7A0D79DF80567BFF7A0D797F
:10111700EC804E7BFF7A0D79F980467BFF7A0E795A
:1011270006803E7BFF7A0E791380367BFF7A0E7935
:1011370020802E7BFF7A0E792E80267BFF7A0E7910
:101147003C801E7BFF7A0E794A80167BFF7A0E79E8
:1011570058800E7BFF7A0E796680067BFF7A0E79C0
:1011670074121791900046E0FBA3E0FAA3E0F99010
:07117700000974041205BC1D
:01117E00224E
:10165D00900046EBF0A3EAF0A3E9F0900046E0FB22
:10166D00A3E0FAA3E0F99000091205466403703A6D
:10167D0012052DFFB4770A90000112054664BB6078
:10168D000D900001120546B4770DEFB4BB097BFF39
:10169D007A0E7982121791900046E0FBA3E0FAA32F
:0B16AD00E0F990000974041205BC2253
:1017C400E4FFFE747A2FF582E43400F583E0F590AB
:1017D4005590FD747A2FF582E43400F583E06D6052
:0C17E40004AE9080050FEFB404D9AF06EE
:0117F00022D6
:10175700E4FE7F03D3EF6480947F402BEFFD339546
:10176700E0FC747A2DF58274003CF583E0F5905522
:1017770090FB747A2DF58274003CF583E06B60046E
:09178700AE9080031F80CDAF0677
:011790002236
:10186300D3EF9400EE940040147DE87C03ED1D70EB
:0D187300011CED4C70F7EF1F70E61E80E3C6
:011880002245
:1018B50053877F75984053890F438920758BFD7534
:0718C5008DFDD28EC2AB22A3
:080003008F993099FDC299228A
:10179100900049EBF0A3EAF0A3E9F0900049E0FBE7
:1017A100A3E0FAA3E0F912052D6017900049A3E424
:1017B10075F0011205DEA9F0FA12052DFF120003E2
:0317C10080D922AA
:0419660041009500A7
:10193500438901758CFC758A18D2A9758D01D28CE5
:03194500D2AF22FC
:10194800E5A0C4131313540130E00453A07F2243CD
:03195800A080224A
:03000B00021433A9
:10143300C0E0C0F0C083C082C0D075D000C000C07F
:1014430001C002C003C004C005C006C007758CFC00
:10145300758A18900095E070051217C4800312175F
:1014630057900092EFF0900092E0FF600690009595
:10147300E0F4F0900091E0B50710900090E004F0E4
:10148300700F90008FE004F0800790008FE4F0A3CA
:10149300F0900094E004F07006900093E004F09064
:1014A300008EE004F0700690008DE004F0C390001D
:1014B30094E094E8900093E094034007121948E401
:1014C300F0A3F0D007D006D005D004D003D002D0CB
:0E14D30001D000D0D0D082D083D0F0D0E03253
:1017F10090008DE0FDA3E0900096CDF0A3EDF09078
:10180100008DE0FCA3E0FDC3900097E09DFD9000FA
:0B18110096E09CFCD3ED9FEC9E50E4A1
:01181C0022A9
:03001B00020019C7
:0100190032B4
:1015F200E4900040F0F0C2A2C2A3C2A47F01120094
:101602000ED2A2C2A3C2A47F0112000EC2A2D2A312
:10161200C2A47F0112000ED2A2D2A3C2A47F0112E1
:10162200000EC2A2C2A3D2A47F0112000ED2A2C295
:10163200A3D2A47F0112000EC2A2D2A3D2A47F0120
:1016420012000ED2A2D2A3D2A47F0112000E9000E9
:0A16520040E004F0E0C39408409C5F
:01165C00226B
:1018CC0063757272656E742074656D702069732017
:0618DC002564202E0D0022
:0A197900E4FEEEC39F50030E80F859
:011983002241
:1018F700D2B77F08121979C2B77F55121979D2B7B3
:051907007F0E021979BA
:02184400AD07EE
:10184600E4FBC2B7ED1392B77F05121979D2B7ED53
:0D185600C313FD0BEBB408EA7F04021979FF
:10188100E4FDFCD2B7D2B730B709ED4480FD7F0447
:0A1891001219790CECB408EBAF0556
:01189B00222A
:10170800E4FFFB1218F77FCC1218447F44121844E8
:101718007F7D1219791218F77FCC1218447FBE12F8
:101728001844121881AB07121881EFFE7C00E42BD5
:10173800FDEC3EFCE4120129E4FBFA7920783F1223
:0E174800001E120162AD077FC8121979AF05AD
:011756002270
:1016B800900049EFF07E007F407D007B017A007941
:1016C8000012070690004D74FFF0A37418F0A3747D
:1016D800CCF0900049E0900050F07B017A0079004E
:1016E8001207A97B017A00790012190C74FF2FF5F3
:1016F8008274FF3EF583E4F0900049E0FF020003A6
:10001E00EC4D6011E8497017ED33EC3304600DE4DC
:10002E00FCFFFEFD22E933E8330470F80201CE1224
:10003E00019958046009E4CC248150062850090225
:10004E0001D82840030201D5C0E0EB4A7044B980C4
:10005E0006D0E0FB0201C4EF4E701CBD8008EBFF22
:10006E00EAFEE9FD80EBE98DF0A4FEE5F002010762
:10007E00E9CDF9EAFEEBFFEF89F0A4FCE5F0CE89BD
:10008E00F0A42EFFE435F0CD89F0A42DFEE435F07A
:10009E008067EF4E7005BD80D780C3EF8BF0A4ACA8
:1000AE00F0EE8BF0A42CFCE435F0F8EF8AF0A42CE3
:1000BE00E5F038FCE433CB8DF0A42CFCE5F03BF8F6
:1000CE00EE8AF0A42CFCE5F038F8E433CF89F0A4E6
:1000DE002CFCE5F038CF3400CE89F0A42FFFE5F0EC
:1000EE003EFEE433C98DF0A42EFEE5F039CD8AF044
:1000FE00A42FFFE5F03EFEE43DFD33D0E0FB5007BC
:10010E000BBB000F0201D8EC2CFCEF33FFEE33FEDD
:06011E00ED33FD0201B00B
:1001240075F020800E75F010800575F0087D007E56
:10013400007F003392D530D503120659EC334010BA
:10014400EF33FFEE33FEED33FDEC33FCD5F0ED225F
:0E015400E5F0247EA2D513CC92E7CDCEFF229B
:10016200EDD2E7CD33EC3392D524814006E4FFFE95
:10017200FDFC22FCE4CFCECDCC24E0501174FF80F4
:10018200EDC3CC13CCCD13CDCE13CECF13CF047091
:07019200F030D5DE02065932
:10074400E508244DF582E43400F583E005082290A1
:10075400004A30070390004DE475F0011206670269
:10076400052D2000E97F2ED2008018EF540F24902D
:10077400D43440D4FF30040BEF24BFB41A00500328
:100784002461FFE50960021509050CE50C700205FA
:100794000B30070E90004AE475F001120667EF0271
:1007A40005AA02181D7403D2078003E4C207F508E2
:1007B40090004A12067EE4F509F50BF50CE5096094
:1007C400077F2012078780F5750AFFC201C200C2A5
:1007D40002C203C205C206C208120753FF700D30DD
:1007E40007057F00120798AF0CAE0B22B4255FC239
:1007F400D5C204120753FF24D0B40A00501A75F06E
:100804000A780930D50508B6FF0106C6A426F620E5
:10081400D5047002D20380D924CFB41A00EF500457
:10082400C2E5D204020A8AD20180C6D20080C0D2B4
:100834000280BCD2D580BAD20580B47F201207874B
:100844002002077401B5090040F1120744FF1207A2
:10085400870207C1D208D2068095120744FB12070B
:1008640044FA120744F94A4B700679887A0B7BFFE5
:1008740020022EE509602A7E008E8275830012050F
:100884004660060EEE650A70F0C2D5EBC0E0EAC021
:10089400E0E9C0E0EE120AEBD0E0F9D0E0FAD0E0F3
:1008A400FB12052DFF60AAEBC0E0EAC0E0E9C0E05E
:1008B400120787D0E02401F9D0E03400FAD0E0FB3D
:1008C400E50A0460DCD50AD98087D20280A2120A24
:1008D400CD60F7E50A7001041201E3A90A600DE591
:1008E4000A600914F50A120B75EF60F3EA30E702A7
:1008F400F404C3995079EAF4250A0430E701E404C6
:10090400F50A800D120ACD60C1EA050A250A120112
:10091400E3EA900079F030E701E4250A04D50A04FB
:1009240020050114120AEBE4C0E0120B7590007963
:10093400E0601320E70714F012076F802204F0D060
:10094400E014C0E07F0012076FE50A600712076633
:10095400150A800B300503120766D0E00207C1D0E8
:10096400E00480C4120ACD609EE50A041201E390FB
:100974000079EAF0E50A2005026001042404120A61
:01098400EB87
:1009850074FF04C0E0120B7512076FE50A2005021B
:100995006003120766D0E0B50AE87F451207799033
:1009A5000079E07F2B30E7047F2DF404C0E01207C7
:1009B50087D0E075F00A84C0F0120770D0E0120706
:1009C500700207C1791080027908C206C208800842
:1009D500D2D5790A8004790AC2D5E50A047002F5F0
:1009E5000AE4FAFDFEFF120744FC7B0820011312FE
:1009F5000744FD7B1030000A120744FE120744FF2E
:100A05007B20EC3382D592D55013C3E43000069F8A
:100A1500FFE49EFEE42001039DFDE49CFCE4CBF88D
:100A2500C201EC700CCFCECDCCE824F8F870F38081
:100A350017C3EF33FFEE33FEED33FDEC33FCEB3341
:100A4500FB994002FB0FD8E9EB300105F8D0E0C473
:100A550048B201C0E00AEC4D4E4F78207B0070C2D1
:100A6500EAB50A0040BCC0E0120AEDD0F0D0E020A3
:100A75000104C4C0E0C4B201C0F0120770D0F0D5C3
:100A8500F0EB0207C11206E0085E5309C958082FAA
:100A95004C082B4209CD4F09D54409D54908444393
:100AA50009DB5509084609684508D2470BA85008CF
:100AB500332D08372E085A2B083B230858200B9155
:100AC5002A07F34800000852E50AB4FF03750A0631
:100AD500120744FC120744FD120744FE120744FFA7
:100AE500900072020220790AA2D52003143005096C
:100AF500B910020404B9080104A2D5200602500168
:100B0500042002689202B509005034C0E07F20300D
:100B150003197F30A20272067205500F120B44C2F0
:100B250002C206C205C2087F30800F300503E9C046
:100B3500E0120787300503D0E0F9D0E0B509CC30E5
:100B450005177F30B9100C1207877F583004077FCF
:100B5500788003B908031207873002057F2D020745
:100B6500877F202008F87F2B2006F322920280CF72
:100B75007F00B40700500B2472F582E43400F5833E
:100B8500E0FF22286E756C6C2900D20112074430F3
:100B950001F8C201780930D50108F60207F32D5096
:100BA5004349581207442403B405004001E4900B5F
:100BB500A393120778743A120778D20375090402D1
:020BC50009C95C
:10019900E9D2E7C933E833F892D5EDD2E7CD33ECAC
:0701A90033FC5002B2D52225
:1001B000EC30E7100FBF000C0EBE00080DBD0004B0
:1001C0000BEB6014A2D5EB13FCED92E7FD2274FF5C
:1001D000FCFDFEFF22E480F8A2D574FF13FC7D80B5
:0301E000E480EFC9
:1001E300F920E73624F950037907E4F42402FBE508
:1001F30082158270021583DBF6E024FB501BE96055
:1002030014E4F0E582158270021583E004F0B40A69
:0D02130008E4F0D9EE7401F00A22C2D522F1
:10022000ED33EC3392D5FA602AB4FF33EDC2E77BAD
:10023000FF60067A027945E4227A02794E20D504DD
:100240007A027949224E614E002B494E46002D49D3
:100250004E4600E47A08F0A3DAFC7B00740722C063
:1002600083C082ECC0E0EDC0E0EEC0E0EFC0E0EAA9
:1002700075F010A4CAABF075F04DA42BFBE435F07B
:10028000FCEA2410FAEB34C5FBEC34D9FCEDC2E7F0
:10029000FF75F056A4F42411C5F0F434C58FF0A412
:1002A0002AE5F03BE43CF020E7141204EDD0E0FF37
:1002B000D0E0FED0E0FDD0E0FC1204208014F40475
:1002C0001204EDD0E0FFD0E0FED0E0FDD0E0FC1263
:1002D000001ED082D083E0FAEDD2E7CD33EC332498
:1002E00082FBE4C3CF33CFCE33CECD33CD33DBF37C
:1002F0007B0775F00A846004F0A31B0AE5F0F0A305
:100300008FF0740AA4FFACF08EF0740AA42CFEAC3B
:10031000F050010C8DF0740AA42CFDE435F0F0A32C
:05032000DBDE74072282
:100325000201CEE86480F8E933E83360110460F037
:10033500ED33EC337009E8FCE9FDEAFEEBFF22043E
:1003450060DED3EB9FEA9EE99DE8C2E78CF0C2F739
:1003550095F0400CE8CCF8E9CDF9EACEFAEBCFFB05
:1003650012019985D0F05804700320D5B3E80470C4
:10037500075002B2D50201D892D5EC0460F7E4CC5F
:10038500C0E0C398F8603B94186008400DD0E0FBCE
:100395000201B0E4FBFAC9FC8028E830E406E4C9B0
:1003A500FBE4CAFCE830E305E4C9CACBFCE8540722
:1003B5006010F8C3E913F9EA13FAEB13FBEC13FC2D
:1003C500D8F130F52FC3E49CFCEF9BFFEE9AFEEDD0
:1003D50099FDD0E0FBEF4E4D4C701222DB0302017C
:1003E500D5EC2CFCEF33FFEE33FEED33FDED30E7BE
:1003F500EB0201B0EF2BFFEE3AFEED39FDD0E0FB4D
:1004050050130BBB00030201D8ED13FDEE13FEEFF5
:0804150013FFEC13FC0201B01F
:10041D000201D8EC5D046005E8590470030201CEB9
:10042D00120199580460F6EC4860F2EC7004FDFE80
:10043D00FF22C860DB2481C85009C39860025006B2
:10044D000201D59850CAF582E9294B4A7005AB8255
:10045D000201C475F0007C1A7880C3EF9BEE9AED13
:10046D0099400DC3EF9BFFEE9AFEED99FDE842F02A
:10047D00DC23ACF0D0E0FFD0E0FED0E0FDAB82207D
:10048D00E7101BEB60BAEC2CFCEF33FFEE33FEED07
:10049D0033FD0201B0E803F830E705C0F075F00058
:1004AD00EF2FFFEE33FEED33FD40B830E7C280AAEB
:1004BD003F8000004120000042C80000447A000047
:1004CD00461C400047C35000497424004B189680C9
:1004DD004CBEBC205A0E1BCA6753C21C749DC5AEC0
:1004ED00FB60065407601C232312051BEB54386078
:1004FD000912050712051612001EECF8EDF9EEFAB9
:10050D00EFCB22EB12051680F1543803241C900416
:10051D00BDFE93FC0EEE93FD0EEE930ECE93FF22D9
:030000000214E106
:0C14E100787FE4F6D8FD75812102152803
:10052D00BB010689828A83E0225002E722BBFE02CC
:09053D00E32289828A83E49322FF
:10054600BB010CE58229F582E5833AF583E022506A
:1005560006E92582F8E622BBFE06E92582F8E222B4
:0D056600E58229F582E5833AF583E49322CE
:10057300BB0111F8E58229F582E5833AF583E0C8EA
:1005830028F0E8225009C58229F8C58226C622BB75
:10059300FE0DC58229F8E2C5822582F2E58222EAB0
:0705A3002583F583E9932293
:1005AA00BB010689828A83F0225002F722BBFE0130
:0205BA00F3222A
:1005BC00F8BB010DE58229F582E5833AF583E8F075
:1005CC00225006E92582C8F622BBFE05E92582C821
:0205DC00F22209
:1005DE00A3F8E0C5F025F0F0E582158270021583D0
:0605EE00E0C838F0E8222D
:1005F400BB0110E58229F582E5833AF583E0F5F045
:10060400A3E0225009E92582F886F008E622BBFE21
:100614000AE92582F8E2F5F008E222E5832AF58367
:08062400E993F5F0A3E993222C
:10062C00F8BB0111E58229F582E5833AF583E8F000
:10063C00E5F0A3F0225009E92582C8F608A6F022BD
:0D064C00BBFE09E92582C8F2E5F008F222A4
:0E065900C3E49FFFE49EFEE49DFDE49CFC22B2
:10066700F8E0FBA3A3E0F925F0F0E582158270021C
:070677001583E0FA38F022C0
:09067E00EBF0A3EAF0A3E9F0227D
:10068700BB0120E58229F582E5833AF583D0F0D0D6
:10069700E0F8D0E0F9D0E0FAD0E0FBE8C0E0C0F045
:1006A70002067E5018E92582F8D083D082D0E0F97F
:1006B700D0E0FAD0E0FBC082C083020732BBFE184D
:1006C700E92582F8D083D082D0E0F9D0E0FAD0E0F3
:0906D700FBC082C08302073B2234
:1006E000D083D082F8E4937012740193700DA3A3A9
:1006F00093F8740193F5828883E4737402936860BD
:06070000EFA3A3A380DFBC
:10181D00EFB40A07740D121828740A309811A8999C
:10182D00B8130CC2983098FDA899C298B811F6302B
:07183D0099FDC299F5992203
:10190C00E4FFFE12052D600C0FEF70010E09E9705B
:05191C00F20A80EF2239
:10070600EF4E6012EF60010EEDBB010B89828A830A
:10071600F0A3DFFCDEFA2289F05007F709DFFCA917
:0C072600F022BBFEFCF309DFFCA9F0226E
:1014ED00021921E493A3F8E493A34003F68001F2DB
:1014FD0008DFF48029E493A3F85407240CC8C33300
:10150D00C4540F4420C8834004F456800146F6DFCE
:10151D00E4800B010204081020408090195BE47EEA
:10152D00019360BCA3FF543F30E509541FFEE493C3
:10153D00A360010ECF54C025E060A840B8E493A38A
:10154D00FAE493A3F8E493A3C8C582C8CAC583CAB5
:10155D00F0A3C8C582C8CAC583CADFE9DEE780BE6D
:01196A00007C
:09073200EBF608EAF608E9F622EC
:09073B00EBF208EAF208E9F222EF
:00000001FF
